{"abi":[{"type":"constructor","inputs":[{"name":"vrfCoordinator","type":"address","internalType":"address"},{"name":"subscriptionId","type":"uint64","internalType":"uint64"},{"name":"keyHash","type":"bytes32","internalType":"bytes32"},{"name":"treasuryAddress","type":"address","internalType":"address payable"},{"name":"usdtAddress","type":"address","internalType":"address"},{"name":"usdcAddress","type":"address","internalType":"address"},{"name":"feeBasisPoints","type":"uint16","internalType":"uint16"},{"name":"tier1Weight","type":"uint16","internalType":"uint16"},{"name":"tier2Weight","type":"uint16","internalType":"uint16"},{"name":"tier3Weight","type":"uint16","internalType":"uint16"}],"stateMutability":"nonpayable"},{"type":"function","name":"MAIN_NUMBERS","inputs":[],"outputs":[{"name":"","type":"uint8","internalType":"uint8"}],"stateMutability":"view"},{"type":"function","name":"MAX_NUMBER","inputs":[],"outputs":[{"name":"","type":"uint8","internalType":"uint8"}],"stateMutability":"view"},{"type":"function","name":"MAX_TICKETS_PER_PURCHASE","inputs":[],"outputs":[{"name":"","type":"uint256","internalType":"uint256"}],"stateMutability":"view"},{"type":"function","name":"ROUND_DURATION","inputs":[],"outputs":[{"name":"","type":"uint256","internalType":"uint256"}],"stateMutability":"view"},{"type":"function","name":"TICKET_PRICE_USD","inputs":[],"outputs":[{"name":"","type":"uint256","internalType":"uint256"}],"stateMutability":"view"},{"type":"function","name":"approve","inputs":[{"name":"to","type":"address","internalType":"address"},{"name":"tokenId","type":"uint256","internalType":"uint256"}],"outputs":[],"stateMutability":"nonpayable"},{"type":"function","name":"autoProgressRound","inputs":[],"outputs":[],"stateMutability":"nonpayable"},{"type":"function","name":"balanceOf","inputs":[{"name":"owner","type":"address","internalType":"address"}],"outputs":[{"name":"","type":"uint256","internalType":"uint256"}],"stateMutability":"view"},{"type":"function","name":"buyTicket","inputs":[{"name":"useUSDT","type":"bool","internalType":"bool"},{"name":"tokenURI","type":"string","internalType":"string"}],"outputs":[],"stateMutability":"nonpayable"},{"type":"function","name":"buyTickets","inputs":[{"name":"useUSDT","type":"bool","internalType":"bool"},{"name":"count","type":"uint256","internalType":"uint256"},{"name":"tokenURIs","type":"string[]","internalType":"string[]"}],"outputs":[],"stateMutability":"nonpayable"},{"type":"function","name":"carryOverPoolUSDC","inputs":[],"outputs":[{"name":"","type":"uint256","internalType":"uint256"}],"stateMutability":"view"},{"type":"function","name":"carryOverPoolUSDT","inputs":[],"outputs":[{"name":"","type":"uint256","internalType":"uint256"}],"stateMutability":"view"},{"type":"function","name":"claimPrize","inputs":[{"name":"ticketId","type":"uint256","internalType":"uint256"}],"outputs":[],"stateMutability":"nonpayable"},{"type":"function","name":"closeCurrentRound","inputs":[],"outputs":[],"stateMutability":"nonpayable"},{"type":"function","name":"currentRoundId","inputs":[],"outputs":[{"name":"","type":"uint256","internalType":"uint256"}],"stateMutability":"view"},{"type":"function","name":"feeBps","inputs":[],"outputs":[{"name":"","type":"uint16","internalType":"uint16"}],"stateMutability":"view"},{"type":"function","name":"finalizePayouts","inputs":[{"name":"roundId","type":"uint256","internalType":"uint256"}],"outputs":[],"stateMutability":"nonpayable"},{"type":"function","name":"getApproved","inputs":[{"name":"tokenId","type":"uint256","internalType":"uint256"}],"outputs":[{"name":"","type":"address","internalType":"address"}],"stateMutability":"view"},{"type":"function","name":"getRoundInfo","inputs":[{"name":"roundId","type":"uint256","internalType":"uint256"}],"outputs":[{"name":"info","type":"tuple","internalType":"struct LottoV2.RoundView","components":[{"name":"id","type":"uint256","internalType":"uint256"},{"name":"startTime","type":"uint64","internalType":"uint64"},{"name":"endTime","type":"uint64","internalType":"uint64"},{"name":"phase","type":"uint8","internalType":"enum LottoV2.Phase"},{"name":"grossUSDT","type":"uint256","internalType":"uint256"},{"name":"grossUSDC","type":"uint256","internalType":"uint256"},{"name":"carryInUSDT","type":"uint256","internalType":"uint256"},{"name":"carryInUSDC","type":"uint256","internalType":"uint256"},{"name":"carryOutUSDT","type":"uint256","internalType":"uint256"},{"name":"carryOutUSDC","type":"uint256","internalType":"uint256"},{"name":"ticketCount","type":"uint256","internalType":"uint256"},{"name":"winningNumbers","type":"uint8[6]","internalType":"uint8[6]"},{"name":"luckyNumber","type":"uint8","internalType":"uint8"},{"name":"firstWinners","type":"uint32","internalType":"uint32"},{"name":"secondWinners","type":"uint32","internalType":"uint32"},{"name":"thirdWinners","type":"uint32","internalType":"uint32"},{"name":"pFirstUSDT","type":"uint256","internalType":"uint256"},{"name":"pSecondUSDT","type":"uint256","internalType":"uint256"},{"name":"pThirdUSDT","type":"uint256","internalType":"uint256"},{"name":"pFirstUSDC","type":"uint256","internalType":"uint256"},{"name":"pSecondUSDC","type":"uint256","internalType":"uint256"},{"name":"pThirdUSDC","type":"uint256","internalType":"uint256"},{"name":"payoutsFinalized","type":"bool","internalType":"bool"}]}],"stateMutability":"view"},{"type":"function","name":"getRoundTickets","inputs":[{"name":"roundId","type":"uint256","internalType":"uint256"}],"outputs":[{"name":"","type":"uint256[]","internalType":"uint256[]"}],"stateMutability":"view"},{"type":"function","name":"getTicketInfo","inputs":[{"name":"ticketId","type":"uint256","internalType":"uint256"}],"outputs":[{"name":"viewData","type":"tuple","internalType":"struct LottoV2.TicketView","components":[{"name":"ticketId","type":"uint256","internalType":"uint256"},{"name":"roundId","type":"uint256","internalType":"uint256"},{"name":"purchasedAt","type":"uint64","internalType":"uint64"},{"name":"numbers","type":"uint8[6]","internalType":"uint8[6]"},{"name":"luckyNumber","type":"uint8","internalType":"uint8"},{"name":"isUSDT","type":"bool","internalType":"bool"},{"name":"tier","type":"uint8","internalType":"uint8"},{"name":"claimed","type":"bool","internalType":"bool"}]}],"stateMutability":"view"},{"type":"function","name":"isApprovedForAll","inputs":[{"name":"owner","type":"address","internalType":"address"},{"name":"operator","type":"address","internalType":"address"}],"outputs":[{"name":"","type":"bool","internalType":"bool"}],"stateMutability":"view"},{"type":"function","name":"latestRoundId","inputs":[],"outputs":[{"name":"","type":"uint256","internalType":"uint256"}],"stateMutability":"view"},{"type":"function","name":"name","inputs":[],"outputs":[{"name":"","type":"string","internalType":"string"}],"stateMutability":"view"},{"type":"function","name":"nextTicketId","inputs":[],"outputs":[{"name":"","type":"uint256","internalType":"uint256"}],"stateMutability":"view"},{"type":"function","name":"owner","inputs":[],"outputs":[{"name":"","type":"address","internalType":"address"}],"stateMutability":"view"},{"type":"function","name":"ownerOf","inputs":[{"name":"tokenId","type":"uint256","internalType":"uint256"}],"outputs":[{"name":"","type":"address","internalType":"address"}],"stateMutability":"view"},{"type":"function","name":"purchaseTimestamps","inputs":[{"name":"","type":"uint256","internalType":"uint256"}],"outputs":[{"name":"","type":"uint64","internalType":"uint64"}],"stateMutability":"view"},{"type":"function","name":"rawFulfillRandomWords","inputs":[{"name":"requestId","type":"uint256","internalType":"uint256"},{"name":"randomWords","type":"uint256[]","internalType":"uint256[]"}],"outputs":[],"stateMutability":"nonpayable"},{"type":"function","name":"renounceOwnership","inputs":[],"outputs":[],"stateMutability":"nonpayable"},{"type":"function","name":"requestIdToRoundId","inputs":[{"name":"","type":"uint256","internalType":"uint256"}],"outputs":[{"name":"","type":"uint256","internalType":"uint256"}],"stateMutability":"view"},{"type":"function","name":"requestRandomWinningNumbers","inputs":[{"name":"roundId","type":"uint256","internalType":"uint256"}],"outputs":[{"name":"requestId","type":"uint256","internalType":"uint256"}],"stateMutability":"nonpayable"},{"type":"function","name":"rounds","inputs":[{"name":"","type":"uint256","internalType":"uint256"}],"outputs":[{"name":"startTime","type":"uint64","internalType":"uint64"},{"name":"endTime","type":"uint64","internalType":"uint64"},{"name":"phase","type":"uint8","internalType":"enum LottoV2.Phase"},{"name":"grossUSDT","type":"uint256","internalType":"uint256"},{"name":"grossUSDC","type":"uint256","internalType":"uint256"},{"name":"carryInUSDT","type":"uint256","internalType":"uint256"},{"name":"carryInUSDC","type":"uint256","internalType":"uint256"},{"name":"carryOutUSDT","type":"uint256","internalType":"uint256"},{"name":"carryOutUSDC","type":"uint256","internalType":"uint256"},{"name":"feeUSDT","type":"uint256","internalType":"uint256"},{"name":"feeUSDC","type":"uint256","internalType":"uint256"},{"name":"baseAmtUSDT","type":"uint256","internalType":"uint256"},{"name":"baseAmtUSDC","type":"uint256","internalType":"uint256"},{"name":"S1USDT","type":"uint256","internalType":"uint256"},{"name":"S2USDT","type":"uint256","internalType":"uint256"},{"name":"S3USDT","type":"uint256","internalType":"uint256"},{"name":"S1USDC","type":"uint256","internalType":"uint256"},{"name":"S2USDC","type":"uint256","internalType":"uint256"},{"name":"S3USDC","type":"uint256","internalType":"uint256"},{"name":"JUSDT","type":"uint256","internalType":"uint256"},{"name":"JUSDC","type":"uint256","internalType":"uint256"},{"name":"pFirstUSDT","type":"uint256","internalType":"uint256"},{"name":"pSecondUSDT","type":"uint256","internalType":"uint256"},{"name":"pThirdUSDT","type":"uint256","internalType":"uint256"},{"name":"pFirstUSDC","type":"uint256","internalType":"uint256"},{"name":"pSecondUSDC","type":"uint256","internalType":"uint256"},{"name":"pThirdUSDC","type":"uint256","internalType":"uint256"},{"name":"firstWinners","type":"uint32","internalType":"uint32"},{"name":"secondWinners","type":"uint32","internalType":"uint32"},{"name":"thirdWinners","type":"uint32","internalType":"uint32"},{"name":"luckyNumber","type":"uint8","internalType":"uint8"},{"name":"payoutsFinalized","type":"bool","internalType":"bool"},{"name":"ticketCount","type":"uint256","internalType":"uint256"}],"stateMutability":"view"},{"type":"function","name":"safeTransferFrom","inputs":[{"name":"from","type":"address","internalType":"address"},{"name":"to","type":"address","internalType":"address"},{"name":"tokenId","type":"uint256","internalType":"uint256"}],"outputs":[],"stateMutability":"nonpayable"},{"type":"function","name":"safeTransferFrom","inputs":[{"name":"from","type":"address","internalType":"address"},{"name":"to","type":"address","internalType":"address"},{"name":"tokenId","type":"uint256","internalType":"uint256"},{"name":"data","type":"bytes","internalType":"bytes"}],"outputs":[],"stateMutability":"nonpayable"},{"type":"function","name":"setApprovalForAll","inputs":[{"name":"operator","type":"address","internalType":"address"},{"name":"approved","type":"bool","internalType":"bool"}],"outputs":[],"stateMutability":"nonpayable"},{"type":"function","name":"setTreasury","inputs":[{"name":"newTreasury","type":"address","internalType":"address payable"}],"outputs":[],"stateMutability":"nonpayable"},{"type":"function","name":"startNextRound","inputs":[{"name":"startTime","type":"uint64","internalType":"uint64"}],"outputs":[{"name":"newRoundId","type":"uint256","internalType":"uint256"}],"stateMutability":"nonpayable"},{"type":"function","name":"supportsInterface","inputs":[{"name":"interfaceId","type":"bytes4","internalType":"bytes4"}],"outputs":[{"name":"","type":"bool","internalType":"bool"}],"stateMutability":"view"},{"type":"function","name":"symbol","inputs":[],"outputs":[{"name":"","type":"string","internalType":"string"}],"stateMutability":"view"},{"type":"function","name":"ticketClaimed","inputs":[{"name":"","type":"uint256","internalType":"uint256"}],"outputs":[{"name":"","type":"bool","internalType":"bool"}],"stateMutability":"view"},{"type":"function","name":"ticketIsUSDT","inputs":[{"name":"","type":"uint256","internalType":"uint256"}],"outputs":[{"name":"","type":"bool","internalType":"bool"}],"stateMutability":"view"},{"type":"function","name":"ticketLuckyNumber","inputs":[{"name":"","type":"uint256","internalType":"uint256"}],"outputs":[{"name":"","type":"uint8","internalType":"uint8"}],"stateMutability":"view"},{"type":"function","name":"ticketNumbers","inputs":[{"name":"ticketId","type":"uint256","internalType":"uint256"}],"outputs":[{"name":"","type":"uint8[6]","internalType":"uint8[6]"}],"stateMutability":"view"},{"type":"function","name":"ticketTier","inputs":[{"name":"","type":"uint256","internalType":"uint256"}],"outputs":[{"name":"","type":"uint8","internalType":"uint8"}],"stateMutability":"view"},{"type":"function","name":"ticketToRound","inputs":[{"name":"","type":"uint256","internalType":"uint256"}],"outputs":[{"name":"","type":"uint256","internalType":"uint256"}],"stateMutability":"view"},{"type":"function","name":"tokenURI","inputs":[{"name":"tokenId","type":"uint256","internalType":"uint256"}],"outputs":[{"name":"","type":"string","internalType":"string"}],"stateMutability":"view"},{"type":"function","name":"transferFrom","inputs":[{"name":"from","type":"address","internalType":"address"},{"name":"to","type":"address","internalType":"address"},{"name":"tokenId","type":"uint256","internalType":"uint256"}],"outputs":[],"stateMutability":"nonpayable"},{"type":"function","name":"transferOwnership","inputs":[{"name":"newOwner","type":"address","internalType":"address"}],"outputs":[],"stateMutability":"nonpayable"},{"type":"function","name":"treasury","inputs":[],"outputs":[{"name":"","type":"address","internalType":"address payable"}],"stateMutability":"view"},{"type":"function","name":"updateFeeConfig","inputs":[{"name":"newFeeBps","type":"uint16","internalType":"uint16"},{"name":"newW1","type":"uint16","internalType":"uint16"},{"name":"newW2","type":"uint16","internalType":"uint16"},{"name":"newW3","type":"uint16","internalType":"uint16"}],"outputs":[],"stateMutability":"nonpayable"},{"type":"function","name":"usdc","inputs":[],"outputs":[{"name":"","type":"address","internalType":"contract IERC20"}],"stateMutability":"view"},{"type":"function","name":"usdt","inputs":[],"outputs":[{"name":"","type":"address","internalType":"contract IERC20"}],"stateMutability":"view"},{"type":"function","name":"w1","inputs":[],"outputs":[{"name":"","type":"uint16","internalType":"uint16"}],"stateMutability":"view"},{"type":"function","name":"w2","inputs":[],"outputs":[{"name":"","type":"uint16","internalType":"uint16"}],"stateMutability":"view"},{"type":"function","name":"w3","inputs":[],"outputs":[{"name":"","type":"uint16","internalType":"uint16"}],"stateMutability":"view"},{"type":"function","name":"withdrawUnclaimed","inputs":[{"name":"recipient","type":"address","internalType":"address"},{"name":"amountUSDT","type":"uint256","internalType":"uint256"},{"name":"amountUSDC","type":"uint256","internalType":"uint256"}],"outputs":[],"stateMutability":"nonpayable"},{"type":"event","name":"Approval","inputs":[{"name":"owner","type":"address","indexed":true,"internalType":"address"},{"name":"approved","type":"address","indexed":true,"internalType":"address"},{"name":"tokenId","type":"uint256","indexed":true,"internalType":"uint256"}],"anonymous":false},{"type":"event","name":"ApprovalForAll","inputs":[{"name":"owner","type":"address","indexed":true,"internalType":"address"},{"name":"operator","type":"address","indexed":true,"internalType":"address"},{"name":"approved","type":"bool","indexed":false,"internalType":"bool"}],"anonymous":false},{"type":"event","name":"BatchMetadataUpdate","inputs":[{"name":"_fromTokenId","type":"uint256","indexed":false,"internalType":"uint256"},{"name":"_toTokenId","type":"uint256","indexed":false,"internalType":"uint256"}],"anonymous":false},{"type":"event","name":"MetadataUpdate","inputs":[{"name":"_tokenId","type":"uint256","indexed":false,"internalType":"uint256"}],"anonymous":false},{"type":"event","name":"OwnershipTransferred","inputs":[{"name":"previousOwner","type":"address","indexed":true,"internalType":"address"},{"name":"newOwner","type":"address","indexed":true,"internalType":"address"}],"anonymous":false},{"type":"event","name":"PayoutsFinalized","inputs":[{"name":"roundId","type":"uint256","indexed":true,"internalType":"uint256"},{"name":"firstPrizeUSDT","type":"uint256","indexed":false,"internalType":"uint256"},{"name":"secondPrizeUSDT","type":"uint256","indexed":false,"internalType":"uint256"},{"name":"thirdPrizeUSDT","type":"uint256","indexed":false,"internalType":"uint256"},{"name":"firstPrizeUSDC","type":"uint256","indexed":false,"internalType":"uint256"},{"name":"secondPrizeUSDC","type":"uint256","indexed":false,"internalType":"uint256"},{"name":"thirdPrizeUSDC","type":"uint256","indexed":false,"internalType":"uint256"},{"name":"carryOutUSDT","type":"uint256","indexed":false,"internalType":"uint256"},{"name":"carryOutUSDC","type":"uint256","indexed":false,"internalType":"uint256"}],"anonymous":false},{"type":"event","name":"PrizeClaimed","inputs":[{"name":"ticketId","type":"uint256","indexed":true,"internalType":"uint256"},{"name":"claimer","type":"address","indexed":true,"internalType":"address"},{"name":"amountUSDT","type":"uint256","indexed":false,"internalType":"uint256"},{"name":"amountUSDC","type":"uint256","indexed":false,"internalType":"uint256"}],"anonymous":false},{"type":"event","name":"RandomWordsRequested","inputs":[{"name":"requestId","type":"uint256","indexed":true,"internalType":"uint256"},{"name":"roundId","type":"uint256","indexed":true,"internalType":"uint256"}],"anonymous":false},{"type":"event","name":"RoundClosed","inputs":[{"name":"roundId","type":"uint256","indexed":true,"internalType":"uint256"}],"anonymous":false},{"type":"event","name":"RoundStarted","inputs":[{"name":"roundId","type":"uint256","indexed":true,"internalType":"uint256"},{"name":"startTime","type":"uint64","indexed":false,"internalType":"uint64"},{"name":"endTime","type":"uint64","indexed":false,"internalType":"uint64"},{"name":"carryInUSDT","type":"uint256","indexed":false,"internalType":"uint256"},{"name":"carryInUSDC","type":"uint256","indexed":false,"internalType":"uint256"}],"anonymous":false},{"type":"event","name":"TicketPurchased","inputs":[{"name":"buyer","type":"address","indexed":true,"internalType":"address"},{"name":"ticketId","type":"uint256","indexed":true,"internalType":"uint256"},{"name":"roundId","type":"uint256","indexed":true,"internalType":"uint256"},{"name":"numbers","type":"uint8[6]","indexed":false,"internalType":"uint8[6]"},{"name":"luckyNumber","type":"uint8","indexed":false,"internalType":"uint8"},{"name":"isUSDT","type":"bool","indexed":false,"internalType":"bool"}],"anonymous":false},{"type":"event","name":"Transfer","inputs":[{"name":"from","type":"address","indexed":true,"internalType":"address"},{"name":"to","type":"address","indexed":true,"internalType":"address"},{"name":"tokenId","type":"uint256","indexed":true,"internalType":"uint256"}],"anonymous":false},{"type":"event","name":"WinningNumbersSet","inputs":[{"name":"roundId","type":"uint256","indexed":true,"internalType":"uint256"},{"name":"numbers","type":"uint8[6]","indexed":false,"internalType":"uint8[6]"},{"name":"luckyNumber","type":"uint8","indexed":false,"internalType":"uint8"}],"anonymous":false},{"type":"error","name":"AlreadyClaimed","inputs":[]},{"type":"error","name":"AlreadyFinalized","inputs":[]},{"type":"error","name":"ERC721IncorrectOwner","inputs":[{"name":"sender","type":"address","internalType":"address"},{"name":"tokenId","type":"uint256","internalType":"uint256"},{"name":"owner","type":"address","internalType":"address"}]},{"type":"error","name":"ERC721InsufficientApproval","inputs":[{"name":"operator","type":"address","internalType":"address"},{"name":"tokenId","type":"uint256","internalType":"uint256"}]},{"type":"error","name":"ERC721InvalidApprover","inputs":[{"name":"approver","type":"address","internalType":"address"}]},{"type":"error","name":"ERC721InvalidOperator","inputs":[{"name":"operator","type":"address","internalType":"address"}]},{"type":"error","name":"ERC721InvalidOwner","inputs":[{"name":"owner","type":"address","internalType":"address"}]},{"type":"error","name":"ERC721InvalidReceiver","inputs":[{"name":"receiver","type":"address","internalType":"address"}]},{"type":"error","name":"ERC721InvalidSender","inputs":[{"name":"sender","type":"address","internalType":"address"}]},{"type":"error","name":"ERC721NonexistentToken","inputs":[{"name":"tokenId","type":"uint256","internalType":"uint256"}]},{"type":"error","name":"InvalidBatchLength","inputs":[]},{"type":"error","name":"InvalidNumbers","inputs":[]},{"type":"error","name":"InvalidPaymentToken","inputs":[]},{"type":"error","name":"NoPrize","inputs":[]},{"type":"error","name":"NotTicketOwner","inputs":[]},{"type":"error","name":"OnlyCoordinatorCanFulfill","inputs":[{"name":"have","type":"address","internalType":"address"},{"name":"want","type":"address","internalType":"address"}]},{"type":"error","name":"OwnableInvalidOwner","inputs":[{"name":"owner","type":"address","internalType":"address"}]},{"type":"error","name":"OwnableUnauthorizedAccount","inputs":[{"name":"account","type":"address","internalType":"address"}]},{"type":"error","name":"PayoutsNotReady","inputs":[]},{"type":"error","name":"SafeERC20FailedOperation","inputs":[{"name":"token","type":"address","internalType":"address"}]},{"type":"error","name":"TicketNotFound","inputs":[]},{"type":"error","name":"TooManyTickets","inputs":[]},{"type":"error","name":"WrongPhase","inputs":[]}],"bytecode":{"object":"0x610100346200077b57601f6200493838819003918201601f191683019291906001600160401b038411838510176200067f578161014092849260409687528339810103126200077b5762000053816200079f565b60208201519091906001600160401b03811681036200077b57818401516060830151939091906001600160a01b03851685036200077b5762000098608085016200079f565b620000a660a086016200079f565b90620000b560c08701620007b4565b93620000c460e08801620007b4565b95620000e3610120620000db6101008b01620007b4565b9901620007b4565b92620000ee6200077f565b601381527f4c75636b7920436861696e204c6f7474657279000000000000000000000000006020820152620001226200077f565b60038152621310d360ea1b6020820152815190916001600160401b0382116200067f575f5490600182811c9216801562000770575b6020831014620006605781601f84931162000713575b50602090601f83116001146200069f575f9262000693575b50508160011b915f199060031b1c1916175f555b8051906001600160401b0382116200067f5760015490600182811c9216801562000674575b6020831014620006605781601f84931162000602575b50602090601f831160011462000587575f926200057b575b50508160011b915f199060031b1c1916176001555b3315620005645760078054336001600160a01b0319821681179092558c5191906001600160a01b03167f8be0079c531659141344cd1fd0a4f28419497f9722a3daafe3b4186f6b6457e05f80a360808790526019805465ffffffffffff1916640300030d401790556001600160a01b038b16156200052e57506001600160a01b0316938415620004fa576001600160a01b0316918215620004c65761ffff95612710620002c1620002b7898d168a8d16620007c4565b89881690620007c4565b1162000482579267ffff0000000000009263ffff000097959265ffff000000009a99979560018060a01b031660e05260018060401b031660018060401b03196017541617601755601855600d549360a05260c05260301b169768010000000000000000600160e01b03908a1b169063ffffffff60e01b16179116179160101b16179160201b161717600d556001600a55600160095560015f52600e602052805f2060018060401b03421681549062093a8081019060018060401b0382116200046e576001600160881b0319909216821790841b6fffffffffffffffff0000000000000000161791829055825190815290821c6001600160401b031660208201525f81830181905260608201526001907fc14c2b5ab44ec2aa5041966f8c8bf198662e94644d79f2c4ab59192ade6b129290608090a2516141259081620007d3823960805181612469015260a0518181816104a80152818161095f01528181610da201528181611be70152818161235d0152613bb0015260c05181818161047b015281816109dc0152818161106c01528181611e3b015281816123190152613e34015260e05181612ab70152f35b634e487b7160e01b5f52601160045260245ffd5b8b5162461bcd60e51b815260206004820152601360248201527f57656967687473206578636565642031303025000000000000000000000000006044820152606490fd5b8a5162461bcd60e51b815260206004820152600d60248201526c1554d110c81c995c5d5a5c9959609a1b6044820152606490fd5b8a5162461bcd60e51b815260206004820152600d60248201526c1554d115081c995c5d5a5c9959609a1b6044820152606490fd5b62461bcd60e51b8152602060048201526011602482015270151c99585cdd5c9e481c995c5d5a5c9959607a1b6044820152606490fd5b8a51631e4fbdf760e01b81525f6004820152602490fd5b015190505f80620001ec565b60015f90815293505f805160206200491883398151915291905b601f1984168510620005e6576001945083601f19811610620005cd575b505050811b0160015562000201565b01515f1960f88460031b161c191690555f8080620005be565b81810151835560209485019460019093019290910190620005a1565b60015f529091505f8051602062004918833981519152601f840160051c81016020851062000658575b90849392915b601f830160051c8201811062000649575050620001d4565b5f815585945060010162000631565b50806200062b565b634e487b7160e01b5f52602260045260245ffd5b91607f1691620001be565b634e487b7160e01b5f52604160045260245ffd5b015190505f8062000185565b5f8080525f80516020620048f88339815191529350601f198516905b818110620006fa5750908460019594939210620006e1575b505050811b015f5562000199565b01515f1960f88460031b161c191690555f8080620006d3565b92936020600181928786015181550195019301620006bb565b5f80529091505f80516020620048f8833981519152601f840160051c81016020851062000768575b90849392915b601f830160051c82018110620007595750506200016d565b5f815585945060010162000741565b50806200073b565b91607f169162000157565b5f80fd5b60408051919082016001600160401b038111838210176200067f57604052565b51906001600160a01b03821682036200077b57565b519061ffff821682036200077b57565b919082018092116200046e5756fe610300806040526004361015610013575f80fd5b5f3560e01c90816301ffc9a714612e41575080630215e1f514612e2657806303cf8a2014612e0357806304ad675d14612d6357806306fdde0314612cbc578063081812fc14612c80578063095ea7b314612b9f5780630c7c1d0b14612a0557806311a8f413146129e85780631fe543e3146123f357806323b872dd146123dc57806324a9d853146123bb5780632c4fee9e1461238c5780632f48ab7d146123485780633e413bee1461230457806342842e0e146122d757806346b00aec146122ad57806359728bbf146122905780635bef6364146122635780635f6f0e63146122485780636031a52f1461222b57806361d027b3146122015780636352211e146121d157806365f9c226146121a75780636641ea081461218a57806369a5394114611f9257806370a0823114611f3c578063715018a614611ee15780637323c55114611eae5780637e44755b14611e8a5780637f30328514611b3f57806388c3ffb01461174c5780638c65c81f146114525780638da5cb5b1461142a57806395d89b411461134c5780639cbe5efd1461132f5780639d3b16b2146112a45780639e524a2814611287578063a044c98714611263578063a22cb465146111b9578063b7fe937914611154578063b88d4fde146110e9578063bdb0e451146110cc578063bf1afcab14610cd6578063c87b56dd14610beb578063cd65d2e514610bbe578063cf44a62014610a9e578063d70981541461087b578063d96e44db14610794578063e985e9c514610742578063f0f44260146106a3578063f2640d8014610674578063f2fde38b146105ed578063fc1eb1a91461050b578063fe73de4a14610431578063fea9b572146104165763ff99a06314610290575f80fd5b3461041257602080600319360112610412576004355f60e06040516102b481612f4c565b82815282858201528260408201526040516102ce81612f68565b60c036823760608201526080810183905260a0810183905260c0810183905201525f818152600260205260409020546001600160a01b031615610400576101a091815f52601381526103dc60405f205491601281526001600160401b03928360405f20541690600f835260405f20946010845260ff9485928360405f20541692601187528460405f20541695601488528560405f20541697601581526103968760405f2054169b604080519e8f9061038582612f4c565b815284810197885201938452613351565b9360608d0194855260808d0196875260a08d01981515895260c08d01998a5260e08d019b15158c526040519c518d5251908c0152511660408a0152516060890190613047565b51166101208601525115156101408501525116610160830152511515610180820152f35b6040516301e4d0c360e21b8152600490fd5b5f80fd5b34610412575f366003190112610412576020604051602d8152f35b346104125760603660031901126104125761044a612f04565b6044356024356104586133d9565b6001600160a01b038316156104d257806104a1575b508061047557005b61049f917f0000000000000000000000000000000000000000000000000000000000000000613fb4565b005b6104cc90837f0000000000000000000000000000000000000000000000000000000000000000613fb4565b8261046d565b60405162461bcd60e51b81526020600482015260116024820152701a5b9d985b1a59081c9958da5c1a595b9d607a1b6044820152606490fd5b346104125760803660031901126104125760043561ffff908181168091036104125760243590828216918281036104125760443592848416808503610412576064359586168087036104125761056a61056f926127109461056a6133d9565b613290565b116105b25763ffff000065ffff000000009267ffff000000000000600d549660301b16956001600160401b031916179160101b16179160201b161717600d555f80f35b60405162461bcd60e51b81526020600482015260136024820152725765696768747320657863656564203130302560681b6044820152606490fd5b3461041257602036600319011261041257610606612f04565b61060e6133d9565b6001600160a01b0390811690811561065c57600754826001600160601b0360a01b821617600755167f8be0079c531659141344cd1fd0a4f28419497f9722a3daafe3b4186f6b6457e05f80a3005b604051631e4fbdf760e01b81525f6004820152602490fd5b34610412576020366003190112610412576004355f526011602052602060ff60405f2054166040519015158152f35b34610412576020366003190112610412576004356001600160a01b038116808203610412576106d06133d9565b1561070a57600d805468010000000000000000600160e01b03191660409290921b68010000000000000000600160e01b0316919091179055005b60405162461bcd60e51b815260206004820152601060248201526f696e76616c696420747265617375727960801b6044820152606490fd5b346104125760403660031901126104125761075b612f04565b610763612f1a565b9060018060a01b038091165f52600560205260405f2091165f52602052602060ff60405f2054166040519015158152f35b34610412575f366003190112610412576107ac6133d9565b6009545f52600e60205260405f20805460ff8160801c16600381101561086757610855576001600160401b038160401c16421061081b5760ff60801b1916600160801b1790556009547fe9f7d7fd0b133404f0ccff737d6f3594748e04bc5507adfaed35835ef98937115f80a2005b60405162461bcd60e51b8152602060048201526012602482015271526f756e64207374696c6c2061637469766560701b6044820152606490fd5b6040516338961af360e21b8152600490fd5b634e487b7160e01b5f52602160045260245ffd5b3461041257602080600319360112610412576004355f818152600260205260409020546001600160a01b031615610400576108b58161339f565b336001600160a01b0390911603610a8c57805f526015825260ff60405f205416610a7a57805f526013825260405f20545f52600e825260405f209160ff601b84015460081c1615610a6857815f526014815260ff60405f2054166011825260ff60405f205416935f91600181145f14610a1b575090508315610a1257601301545b8015610a00575f8381526015835260409020805460ff1916600117905583156109d657610986817f00000000000000000000000000000000000000000000000000000000000000005b3390613fb4565b83156109cf5780935b156109c957505f905b6040519384528301527f64da964e036dd66a7be792791f60a47ec5378950b9d12795de3f453aa3940eb060403393a3005b90610998565b5f9361098f565b610986817f000000000000000000000000000000000000000000000000000000000000000061097f565b60405163273b4b7760e01b8152600490fd5b60160154610936565b60028103610a3e575090508315610a355760140154610936565b60170154610936565b600314610a4c575b50610936565b90508315610a5f57601501545b84610a46565b60180154610a59565b6040516302ed6fc960e51b8152600490fd5b604051630c8d9eab60e31b8152600490fd5b60405163e18d39ad60e01b8152600490fd5b3461041257602036600319011261041257600435610aba6133d9565b805f52600e60205260405f2060ff815460801c1660038110156108675760020361085557601b810160ff815460081c16610bac5781610b197f7fb5842b0113ea28bc3375f86fc3c7138705f384a3bb5c28728f74efb98d994c93613aac565b610b2281613d56565b610100918261ff00198254161790556005810190610b438254600b54613290565b600b5560068101610b578154600c54613290565b600c556013820154926014830154926015810154601682015490601860178401549301549354945495604051978852602088015260408701526060860152608085015260a084015260c083015260e0820152a2005b60405163475a253560e01b8152600490fd5b34610412576020366003190112610412576004355f526010602052602060ff60405f205416604051908152f35b346104125760208060031936011261041257600435610c098161339f565b505f526006815260405f209060405191825f8254610c26816130c2565b93848452600191866001821691825f14610cb4575050600114610c78575b5050610c5292500383612fd5565b5f604051610c5f81612fba565b52610c74604051928284938452830190612ec6565b0390f35b8592505f52815f20905f915b858310610c9c575050610c5293508201018580610c44565b80548389018501528794508693909201918101610c84565b9250935050610c5294915060ff191682840152151560051b8201018580610c44565b3461041257606036600319011261041257610cef61302b565b6001600160401b036044351161041257366023604435011215610412576001600160401b036044356004013511610412573660246044356004013560051b604435010111610412576009545f52600e60205260405f20805460ff8160801c1660038110156108675761085557806001600160401b03610d79921642101590816110b5575b5061329d565b60243515611091576032602435116110a357602435604435600401350361109157811561106a577f0000000000000000000000000000000000000000000000000000000000000000915b620f424092836024358102046024350361105657604051906323b872dd60e01b5f523360045230602452602435850260445260205f60648180855af160015f5114811615611037575b826040525f606052156110195750506008546009545f5b6024358110610e80575050610e3b9060243590613290565b600855601c8201610e4f6024358254613290565b905515610e6d576001610e69910191602435028254613290565b9055005b6002610e69910191602435028254613290565b610e8a8184613290565b90610e9482613427565b9092805f52600f60205260405f2084905f915f5b60068110610feb57505055601060205260405f2060ff831660ff198254161790556011602052610ee78760405f209060ff801983541691151516179055565b601260205260405f206001600160401b0342166001600160401b031982541617905560136020528460405f2055845f526016602052610f298160405f206132f2565b610f3381336135ba565b60443560040135831015610fd75760248360051b6044350101356042196044353603018112156104125760443501936024850135946001600160401b03861161041257604401853603811361041257888794610fbd610fb77fe57a586fff506ed8df227cbe0897a8c39e674153f0137bc05b6ebf9e953772439460019a369161308c565b866137d9565b610fce60405192839233968461332c565b0390a401610e23565b634e487b7160e01b5f52603260045260245ffd5b909260206110106001928460ff885116919060ff809160031b9316831b921b19161790565b94019101610ea8565b635274afe760e01b82526001600160a01b0316600482015260249150fd5b600181151661104d57813b15153d151616610e0c565b823d5f823e3d90fd5b634e487b7160e01b5f52601160045260245ffd5b7f000000000000000000000000000000000000000000000000000000000000000091610dc3565b60405163ca3487f760e01b8152600490fd5b604051631fa5624360e11b8152600490fd5b6001600160401b03915060401c1642111584610d73565b34610412575f366003190112610412576020600b54604051908152f35b3461041257608036600319011261041257611102612f04565b61110a612f1a565b90604435606435926001600160401b03841161041257366023850112156104125761114261049f94369060248160040135910161308c565b9261114e8383836130fa565b33613938565b346104125760203660031901126104125760043560c060405161117681612f68565b3690375f818152600260205260409020546001600160a01b031615610400575f52600f60205260c06111aa60405f20613351565b6111b76040518092613047565bf35b34610412576040366003190112610412576111d2612f04565b6024359081151590818303610412576001600160a01b031691821561124a5761121c90335f52600560205260405f20845f5260205260405f209060ff801983541691151516179055565b6040519081527f17307eab39ab6107e8899845ad3d59bd9653f200f220920489ca2b5937696c3160203392a3005b604051630b61174360e31b815260048101849052602490fd5b34610412575f36600319011261041257602061ffff600d5460301c16604051908152f35b34610412575f366003190112610412576020600c54604051908152f35b34610412575f366003190112610412576009545f52600e60205260405f20805460ff8160801c166003811015610867571580611319575b6112e157005b60ff60801b1916600160801b1790556009547fe9f7d7fd0b133404f0ccff737d6f3594748e04bc5507adfaed35835ef98937115f80a2005b506001600160401b038160401c164210156112db565b34610412575f366003190112610412576020600954604051908152f35b34610412575f366003190112610412576040515f60018260015492611370846130c2565b92838352602094856001821691825f1461140a5750506001146113af575b5061139b92500383612fd5565b610c74604051928284938452830190612ec6565b84915060015f527fb10e2d527612073b26eecdfd717e6a320cf44b4afac2b0732d9fcbe2b7fa0cf6905f915b8583106113f257505061139b93508201018561138e565b805483890185015287945086939092019181016113db565b60ff19168582015261139b95151560051b850101925087915061138e9050565b34610412575f366003190112610412576007546040516001600160a01b039091168152602090f35b34610412576020366003190112610412576004355f52600e60205260405f206102c0526102c051546101605260016102c051015460026102c05101546101a05260036102c051015460046102c051015460056102c051015460066102c051015460076102c051015460086102c051015460096102c051015490600a6102c051015492600b6102c051015494600c6102c051015496600d6102c051015498600e6102c05101549a600f6102c05101549c60106102c051015460e05260116102c05101546101205260126102c05101546102a05260136102c05101546102805260146102c05101546102605260156102c05101546102405260166102c05101546102205260176102c05101546102005260186102c05101546101e05260196102c05101546101c052601b6102c051015461018052601c6102c051015461014052604051610100526001600160401b03610160511661010051526001600160401b036101605160401c1660206101005101526115da6040610100510160ff6101605160801c1661303a565b60606101005101526101a051608061010051015260a061010051015260c061010051015260e0610100510152610100805101526101206101005101526101406101005101526101606101005101526101806101005101526101a06101005101526101c06101005101526101e061010051015261020061010051015261022061010051015260e051610240610100510152610120516102606101005101526102a051610280610100510152610280516102a0610100510152610260516102c0610100510152610240516102e061010051015261022051610300610100510152610200516103206101005101526101e05161034061010051015263ffffffff6101c0511661036061010051015263ffffffff6101c05160201c1661038061010051015263ffffffff6101c05160401c166103a061010051015260ff61018051166103c061010051015260ff6101805160081c1615156103e06101005101526101405161040061010051015261042061010051f35b34610412576020366003190112610412575f6102c060405161176d81612f30565b8281528260208201528260408201528260608201528260808201528260a08201528260c08201528260e08201528261010082015282610120820152826101408201526040516117bb81612f68565b60c036823761016082015282610180820152826101a0820152826101c0820152826101e08201528261020082015282610220820152826102408201528261026082015282610280820152826102a082015201526004355f52600e60205260405f20805490600181015490600281015490600381015493600482015460a052600582015460c052600682015493601c83015493601b840154608052601984015460138501549260148601549460158701549660168101549860178201549a60188301549c6040516102e0526118916102e051612f30565b6004356102e051526001600160401b03851660206102e05101526001600160401b038560401c1660406102e0510152600360ff8660801c1610156108675763ffffffff976119319660ff601a9760801c1660606102e051015260806102e051015260a06102e051015260c06102e051015260a05160e06102e051015260c0516101006102e05101526101206102e05101526101406102e051015201613351565b6101606102e051015260ff608051166101806102e05101528181166101a06102e0510152818160201c166101c06102e051015260401c166101e06102e05101526102006102e05101526102206102e05101526102406102e05101526102606102e05101526102806102e05101526102a06102e051015260ff60805160081c1615156102c06102e05101526103806040516102e0515181526001600160401b0360206102e05101511660208201526001600160401b0360406102e0510151166040820152611a0960606102e0510151606083019061303a565b60806102e0510151608082015260a06102e051015160a082015260c06102e051015160c082015260e06102e051015160e08201526101006102e05101516101008201526101206102e05101516101208201526101406102e0510151610140820152611a816101606102e0510151610160830190613047565b60ff6101806102e05101511661022082015263ffffffff6101a06102e05101511661024082015263ffffffff6101c06102e05101511661026082015263ffffffff6101e06102e0510151166102808201526102006102e05101516102a08201526102206102e05101516102c08201526102406102e05101516102e08201526102606102e05101516103008201526102806102e05101516103208201526102a06102e05101516103408201526102c06102e05101511515610360820152f35b3461041257604036600319011261041257611b5861302b565b60246001600160401b03813511610412573660238235011215610412576001600160401b03813560040135116104125736818035600401358135010111610412576009545f52600e60205260405f209081549260ff9360ff8160801c166003811015611e775761085557806001600160401b03611bdf92164210159081611e60575061329d565b8015611e39577f0000000000000000000000000000000000000000000000000000000000000000915b6040516323b872dd60e01b5f5233600452308252620f424060445260205f60648180885af19360019460015f5114811615611e23575b826040525f60605215611e0957505060085493611c5a85613427565b969094865f52600f60205260405f209086905f935f5b60068110611dda575050505055601060205260405f2060ff871660ff198254161790556011602052611cb18360405f209060ff801983541691151516179055565b601260205260405f206001600160401b0342166001600160401b031982541617905560095460136020528060405f20555f526016602052611cf58560405f206132f2565b611cff85336135ba565b611d15610fb7368435600401358580350161308c565b611d2060085461331e565b600855601c8101611d31815461331e565b90558215611d9e57600101805491620f42408301809311611d8b5750557fe57a586fff506ed8df227cbe0897a8c39e674153f0137bc05b6ebf9e95377243905b60095494611d8660405192839233968461332c565b0390a4005b634e487b7160e01b5f9081526011600452fd5b600201805491620f42408301809311611d8b5750557fe57a586fff506ed8df227cbe0897a8c39e674153f0137bc05b6ebf9e9537724390611d71565b90916020611dfe8597848685985116919060ff809160031b9316831b921b19161790565b960193929101611c70565b635274afe760e01b82526001600160a01b03166004820152fd5b600181151661104d57813b15153d151616611c3e565b7f000000000000000000000000000000000000000000000000000000000000000091611c08565b6001600160401b03915060401c1642111586610d73565b83634e487b7160e01b5f5260216004525ffd5b34610412575f36600319011261041257602061ffff600d5460101c16604051908152f35b34610412576020366003190112610412576004355f52601260205260206001600160401b0360405f205416604051908152f35b34610412575f36600319011261041257611ef96133d9565b600780546001600160a01b031981169091555f906001600160a01b03167f8be0079c531659141344cd1fd0a4f28419497f9722a3daafe3b4186f6b6457e08280a3005b34610412576020366003190112610412576001600160a01b03611f5d612f04565b168015611f7a575f526003602052602060405f2054604051908152f35b6040516322718ad960e21b81525f6004820152602490fd5b3461041257602080600319360112610412576001600160401b036004358181169081810361041257611fc26133d9565b906009545f52600e845260ff60405f205460801c1660038110156108675715612145579082911561213c575b164281106121075762278d0042018042116110565781116120d257600a5491600183018093116110565782600a5582600955825f52600e845260405f209182549062093a808101918383116110565785947fc14c2b5ab44ec2aa5041966f8c8bf198662e94644d79f2c4ab59192ade6b1292946080946fffffffffffffffff00000000000000008560049570ffffffffffffffffffffffffffffffffff1916179160401b1617808355600b5492836003820155600c54948591015560405194855260401c168884015260408301526060820152a25f600b555f600c55604051908152f35b60405162461bcd60e51b815260048101849052600d60248201526c29ba30b93a103a37b7903330b960991b6044820152606490fd5b60405162461bcd60e51b815260048101849052600d60248201526c14dd185c9d081a5b881c185cdd609a1b6044820152606490fd5b50804216611fee565b60405162461bcd60e51b815260048101859052601a60248201527f41637469766520726f756e64207374696c6c2073656c6c696e670000000000006044820152606490fd5b34610412575f36600319011261041257602060405162093a808152f35b34610412576020366003190112610412576004355f52601a602052602060405f2054604051908152f35b346104125760203660031901126104125760206121ef60043561339f565b6040516001600160a01b039091168152f35b34610412575f36600319011261041257600d546040805191901c6001600160a01b03168152602090f35b34610412575f366003190112610412576020600854604051908152f35b34610412575f36600319011261041257602060405160328152f35b34610412576020366003190112610412576004355f526014602052602060ff60405f205416604051908152f35b34610412575f366003190112610412576020604051620f42408152f35b34610412576020366003190112610412576004355f526013602052602060405f2054604051908152f35b346104125761049f6122e836612ff6565b90604051926122f684612fba565b5f845261114e8383836130fa565b34610412575f366003190112610412576040517f00000000000000000000000000000000000000000000000000000000000000006001600160a01b03168152602090f35b34610412575f366003190112610412576040517f00000000000000000000000000000000000000000000000000000000000000006001600160a01b03168152602090f35b34610412576020366003190112610412576004355f526015602052602060ff60405f2054166040519015158152f35b34610412575f36600319011261041257602061ffff600d5416604051908152f35b346104125761049f6123ed36612ff6565b916130fa565b34610412576040366003190112610412576001600160401b0360043560243582811161041257366023820112156104125780600401359283116129d4578260051b604051936124456020830186612fd5565b8452602460208501918301019136831161041257602401905b8282106129c45750507f00000000000000000000000000000000000000000000000000000000000000006001600160a01b03169050338190036129a65750805f52601a60205260405f205490811561296f575f52601a6020525f6040812055805f52600e60205260405f209182549160ff8360801c1660038110156108675760010361085557604051936124f185612f68565b60c0368637600783511061292a576040519261250c84612f83565b6105c03685375f5b600681106128805750805160061015610fd75760e0015193602d85066001810181116110565790949060010160ff165b61255160ff821686613405565b5115612595575060405160208101918252610aaa60408201526040815261257781612f9f565b51902093602d8506600181018091116110565790949060ff16612544565b93505084936125a38561405b565b5f85815b60068110612852575050601a830155601b8201805460ff191660ff861617905560ff60801b1916600160811b1790555f8181526016602090815260408083209051815480825291845282842090969390928792908301915b81811061283957505061261492500385612fd5565b5f805f955f5b81518110156127af5761262d8183614032565b51805f52600f60205261264260405f20613351565b5f905f9060405161265281612f83565b6105c0368237895f5b6006811061278c5750505f5b6006811061274d5750505f5b60068110612720575b5060019493925f92915060ff16600681036126ce5750505060ff6126a08497614046565b965b1690816126b2575b50500161261a565b5f52601460205260405f209060ff1982541617905589806126aa565b60051480918192612718575b50156126f557505060ff6126ef600296614046565b956126a2565b612702575b60ff906126a2565b5060ff61271060039b614046565b9a90506126fa565b90508d6126da565b60ff8c1660ff6127308385613416565b51161461273f57600101612673565b50600191508190508c61267c565b61276460ff61275c8386613416565b511683613405565b51612772575b600101612667565b9360ff600181831601116110565760ff166001019361276a565b60016127a660ff61279e848496613416565b511685613405565b52018a9061265b565b857fd319f488affacd8af4321b9a1e8d896c32dbca27c7f0c3ba205ad14ba1ecb51260e08760ff8b8d8a8a885f52600e60205267ffffffff00000000601960405f20019363ffffffff6bffffffff000000000000000086549260401b169416906001600160601b031916179160201b16171790556128306040518094613047565b1660c0820152a2005b84548352600194850194899450602090930192016125ff565b909160206128776001928460ff875116919060ff809160031b9316831b921b19161790565b930191016125a7565b949161289186839593989698614032565b5193602d85066001810181116110565790949060010160ff165b6128b860ff82168a613405565b51156128fa575060405160208101918252876040820152604081526128dc81612f9f565b51902093602d8506600181018091116110565760ff169490946128ab565b60019294979150612923839199979996949660ff612918858d613416565b911680915288613405565b5201612514565b60405162461bcd60e51b815260206004820152601960248201527f496e73756666696369656e742072616e646f6d20776f726473000000000000006044820152606490fd5b60405162461bcd60e51b815260206004820152600f60248201526e155b9adb9bdddb881c995c5d595cdd608a1b6044820152606490fd5b6044906040519063073e64fd60e21b82523360048301526024820152fd5b813581526020918201910161245e565b634e487b7160e01b5f52604160045260245ffd5b34610412575f366003190112610412576020600a54604051908152f35b346104125760208060031936011261041257600435612a226133d9565b805f52600e825260405f2060ff815460801c166003811015610867576001036108555760ff601a82015416159081612b8f575b5015612b5a576018546017546019546040516305d3b1d360e41b815260048101939093526001600160401b03909116602483015261ffff81851c16604483015263ffffffff16606482015260076084820152828160a4815f6001600160a01b037f0000000000000000000000000000000000000000000000000000000000000000165af1908115612b4f575f91612b22575b50805f52601a83528160405f205560405191817fc904ef81354df41ed9256aa2ab862017f6ab3f33f3f7ca50016a1786083d086d5f80a38152f35b90508281813d8311612b48575b612b398183612fd5565b81010312610412575183612ae7565b503d612b2f565b6040513d5f823e3d90fd5b60405162461bcd60e51b815260048101839052600d60248201526c20b63932b0b23c90323930bbb760991b6044820152606490fd5b60ff9150601b0154161583612a55565b3461041257604036600319011261041257612bb8612f04565b602435612bc48161339f565b33151580612c6d575b80612c44575b612c2c576001600160a01b039283169282918491167f8c5be1e5ebec7d5bd14f71427d1e84f3dd0314c0f7b2291e5b200ac8c7c3b9255f80a45f90815260046020526040902080546001600160a01b0319169091179055005b60405163a9fbf51f60e01b8152336004820152602490fd5b5060018060a01b0381165f52600560205260405f20335f5260205260ff60405f20541615612bd3565b506001600160a01b038116331415612bcd565b3461041257602036600319011261041257600435612c9d8161339f565b505f526004602052602060018060a01b0360405f205416604051908152f35b34610412575f366003190112610412576040515f80549082612cdd836130c2565b91828252602093600190856001821691825f1461140a575050600114612d0a575061139b92500383612fd5565b5f808052859250907f290decd9548b62a8d60345a988386fc84ba6bc95484008f6362f93160ef3e5635b858310612d4b57505061139b93508201018561138e565b80548389018501528794508693909201918101612d34565b3461041257602080600319360112610412576004355f526016815260405f20604051908183825491828152019081925f52845f20905f5b86828210612def578686612db082880383612fd5565b60405192839281840190828552518091526040840192915f5b828110612dd857505050500390f35b835185528695509381019392810192600101612dc9565b835485529093019260019283019201612d9a565b34610412575f366003190112610412576020600d5461ffff60405191831c168152f35b34610412575f36600319011261041257602060405160068152f35b34610412576020366003190112610412576004359063ffffffff60e01b821680920361041257602091632483248360e11b8114908115612e83575b5015158152f35b6380ac58cd60e01b811491508115612eb5575b8115612ea4575b5083612e7c565b6301ffc9a760e01b14905083612e9d565b635b5e139f60e01b81149150612e96565b91908251928382525f5b848110612ef0575050825f602080949584010152601f8019910116010190565b602081830181015184830182015201612ed0565b600435906001600160a01b038216820361041257565b602435906001600160a01b038216820361041257565b6102e081019081106001600160401b038211176129d457604052565b61010081019081106001600160401b038211176129d457604052565b60c081019081106001600160401b038211176129d457604052565b6105c081019081106001600160401b038211176129d457604052565b606081019081106001600160401b038211176129d457604052565b602081019081106001600160401b038211176129d457604052565b90601f801991011681019081106001600160401b038211176129d457604052565b6060906003190112610412576001600160a01b0390600435828116810361041257916024359081168103610412579060443590565b60043590811515820361041257565b9060038210156108675752565b5f915b6006831061305757505050565b60019060ff8351168152602080910192019201919061304a565b6001600160401b0381116129d457601f01601f191660200190565b92919261309882613071565b916130a66040519384612fd5565b829481845281830111610412578281602093845f960137010152565b90600182811c921680156130f0575b60208310146130dc57565b634e487b7160e01b5f52602260045260245ffd5b91607f16916130d1565b6001600160a01b03918216929091831561327857815f52602092600284528260409583875f20541695331515806131e6575b50600290876131b5575b825f5260038152885f2060018154019055835f5252865f20816001600160601b0360a01b825416179055857fddf252ad1be2c89b69c2b068fc378daa952ba7f163c4a11628f55a4df523b3ef5f80a416928383036131945750505050565b6064945051926364283d7b60e01b8452600484015260248301526044820152fd5b5f84815260046020526040812080546001600160a01b03191690558881526003825289902080545f19019055613136565b9192509080613237575b156131fe579084915f61312c565b86858761321b576024915190637e27328960e01b82526004820152fd5b604491519063177e802f60e01b82523360048301526024820152fd5b50338614801561325c575b806131f05750845f52600481523384885f205416146131f0565b50855f5260058152865f20335f52815260ff875f205416613242565b604051633250574960e11b81525f6004820152602490fd5b9190820180921161105657565b156132a457565b60405162461bcd60e51b815260206004820152601360248201527214d85b195cc81dda5b991bddc818db1bdcd959606a1b6044820152606490fd5b8181029291811591840414171561105657565b805490680100000000000000008210156129d45760018201808255821015610fd7575f5260205f200155565b5f1981146110565760010190565b919260ff60e092959461334485610100810198613047565b1660c08401521515910152565b90604051915460ff908181168452818160081c166020850152818160101c166040850152818160181c166060850152818160201c16608085015260281c1660a083015261339d82612f68565b565b5f818152600260205260409020546001600160a01b03169081156133c1575090565b60249060405190637e27328960e01b82526004820152fd5b6007546001600160a01b031633036133ed57565b60405163118cdaa760e01b8152336004820152602490fd5b90602e811015610fd75760051b0190565b906006811015610fd75760051b0190565b90604090815161343681612f68565b60c036823780935f93600854918151602093602082019242845244858401523360601b6060840152607483015260948201526094815261347581612f68565b519020815161348381612f83565b6105c03682375f935f5b6006811061351f575060019384805b6134b1575b5050505050505061339d9061405b565b989091929394959815613506575b505f93815183810191825289838201528281526134db81612f9f565b51902092602d840694868601809611611056576134fc60ff8897169a61331e565b969392919361349c565b61351360ff821685613405565b516134bf5797806134a1565b93949790959891965f60015b15613574575b505f9386518881019182528a8882015287815261354d81612f9f565b51902098602d8a06600181018091116110565760ff61356d91169161331e565b999461352b565b61358160ff82168a613405565b51613531579460016135ae81939a98949b979c99959c60ff6135a3858d613416565b911680915289613405565b5201949190939461348d565b60408051926135c884612fba565b5f84526001600160a01b03938385169384156137c257825f5260209560028752845f20541683868215159283613791575b5f82815260038b528881208054600101905583815260028b5288812080546001600160a01b031916841790557fddf252ad1be2c89b69c2b068fc378daa952ba7f163c4a11628f55a4df523b3ef9080a461377a573b61365a575b5050505050565b846136979184959697945180938192630a85bd0160e11b968784523360048501525f60248501526044840152608060648401526084830190612ec6565b03815f895af15f918161373a575b50613703575050503d5f146136fb573d926136bf84613071565b936136cc83519586612fd5565b84523d5f8286013e5b835193846136f5578251633250574960e11b815260048101859052602490fd5b84925001fd5b6060926136d5565b9194506001600160e01b0319909116036137235750505f80808080613653565b602492505190633250574960e11b82526004820152fd5b9091508681813d8311613773575b6137528183612fd5565b8101031261041257516001600160e01b03198116810361041257905f6136a5565b503d613748565b83516339e3563760e11b81525f6004820152602490fd5b5f83815260046020526040812080546001600160a01b031916905581815260038b5288902080545f190190556135f9565b8351633250574960e11b81525f6004820152602490fd5b919091805f526020906006825260405f208451946001600160401b0386116129d45761380582546130c2565b601f81116138f5575b508390601f8711600114613871579580917ff8e1a15aba9398e019f0b49df1a4fde98ee17ae345cb5f6b5e2c27f5033e8ce796975f92613866575b50508160011b915f199060031b1c19161790555b604051908152a1565b015190505f80613849565b90601f19871691835f52855f20925f5b8181106138de57509160019391897ff8e1a15aba9398e019f0b49df1a4fde98ee17ae345cb5f6b5e2c27f5033e8ce7999a94106138c6575b505050811b01905561385d565b01515f1960f88460031b161c191690555f80806138b9565b929387600181928786015181550195019301613881565b825f52845f20601f880160051c81019186891061392e575b601f0160051c01905b818110613923575061380e565b5f8155600101613916565b909150819061390d565b9293909193843b61394a575050505050565b604051630a85bd0160e11b8082526001600160a01b03958616600483015293851660248201526044810191909152608060648201526020959490931693929085908290819061399d906084830190612ec6565b03815f885af15f9181613a41575b50613a0a575050503d5f14613a02573d916139c583613071565b926139d36040519485612fd5565b83523d5f8285013e5b825192836139fd57604051633250574960e11b815260048101849052602490fd5b019050fd5b6060916139dc565b9193506001600160e01b031990911603613a2957505f80808080613653565b60249060405190633250574960e11b82526004820152fd5b9091508581813d8311613a7a575b613a598183612fd5565b8101031261041257516001600160e01b03198116810361041257905f6139ab565b503d613a4f565b8115613a8b570490565b634e487b7160e01b5f52601260045260245ffd5b9190820391821161105657565b6001810154906003810154908215613d4f57600d549061271061ffff93613ae182613ad9878716896132df565b048097613a9f565b91613b1381613af5888860101c16866132df565b049682613b07828960201c16876132df565b049660301c16846132df565b0494613b1f8282613290565b90876007860155836009860155600b85015584600c85015585600d85015580601185015560198401549563ffffffff9081881696828960201c169283159960401c16938415998a15613b735f985f9a613290565b9b8b613beb57505050505050505050506005915001555b80151580613bd4575b613b9a5750565b600d5461339d919060401c6001600160a01b03167f0000000000000000000000000000000000000000000000000000000000000000613fb4565b50600d5460401c6001600160a01b03161515613b93565b829081613d47575b5015613c62575050613c3e899a94613c38613c31613c2a60059d613c25613c459961056a613c4b9d9a613c389a613290565b613a81565b9d8e6132df565b91896132df565b90613290565b91876132df565b90613a9f565b946013840155601483015560158201550155613b8a565b81809c969b97999394959c90613d40575b15613cb957505050613c86848792613a81565b988992613c9291613290565b90613c9c91613a81565b94613c38613c3e600599613c38613c31613c4b98613c45976132df565b613ccd8760059c969d93949a979895613a81565b9b8c9315613d2c575b50613cf9575b50613c3e613c4593613c38613c31613c4b989795613c38956132df565b613c38919750613c4593613c38613c318795613d1c613c4b9a99613c3e96613a81565b9b95509597985050509350613cdc565b613d399198508590613a81565b965f613cd6565b5080613c73565b90505f613bf3565b6005015550565b6002810154906004810154908215613fad57600d549061271061ffff93613d8382613ad9878716896132df565b91613d9781613af5888860101c16866132df565b0494613da38282613290565b9087600886015583600a860155600e85015584600f85015585601085015580601285015560198401549563ffffffff9081881696828960201c169283159960401c16938415998a15613df75f985f9a613290565b9b8b613e6f57505050505050505050506006915001555b80151580613e58575b613e1e5750565b600d5461339d919060401c6001600160a01b03167f0000000000000000000000000000000000000000000000000000000000000000613fb4565b50600d5460401c6001600160a01b03161515613e17565b829081613fa5575b5015613ec0575050613c3e899a94613c38613c31613c2a60069d613c25613c459961056a613ea99d9a613c389a613290565b946016840155601783015560188201550155613e0e565b81809c969b97999394959c90613f9e575b15613f1757505050613ee4848792613a81565b988992613ef091613290565b90613efa91613a81565b94613c38613c3e600699613c38613c31613ea998613c45976132df565b613f2b8760069c969d93949a979895613a81565b9b8c9315613f8a575b50613f57575b50613c3e613c4593613c38613c31613ea9989795613c38956132df565b613c38919750613c4593613c38613c318795613f7a613ea99a99613c3e96613a81565b9b95509597985050509350613f3a565b613f979198508590613a81565b965f613f34565b5080613ed1565b90505f613e77565b6006015550565b60405163a9059cbb60e01b5f9081526001600160a01b039384166004526024949094529260209060448180855af160015f5114811615614013575b8360405215613ffd57505050565b635274afe760e01b835216600482015260249150fd5b600181151661402957813b15153d151616613fef565b833d5f823e3d90fd5b8051821015610fd75760209160051b010190565b90600163ffffffff8093160191821161105657565b905f5b6006808210156140e957600190818301808411611056575b8181106140885750505060010161405e565b829060ff80614097878a613416565b5116816140a4848b613416565b5116106140b3575b5001614076565b806140be878a613416565b5116906140cb838a613416565b51166140d7878a613416565b526140e28289613416565b525f6140ac565b5050905056fea2646970667358221220f0d2978ffe651ee450a22e6aed9905a32133798abcb84d39f99d66ab58a0843264736f6c63430008180033290decd9548b62a8d60345a988386fc84ba6bc95484008f6362f93160ef3e563b10e2d527612073b26eecdfd717e6a320cf44b4afac2b0732d9fcbe2b7fa0cf6","linkReferences":{}},"methodIdentifiers":{"MAIN_NUMBERS()":"0215e1f5","MAX_NUMBER()":"fea9b572","MAX_TICKETS_PER_PURCHASE()":"5f6f0e63","ROUND_DURATION()":"6641ea08","TICKET_PRICE_USD()":"59728bbf","approve(address,uint256)":"095ea7b3","autoProgressRound()":"9d3b16b2","balanceOf(address)":"70a08231","buyTicket(bool,string)":"7f303285","buyTickets(bool,uint256,string[])":"bf1afcab","carryOverPoolUSDC()":"9e524a28","carryOverPoolUSDT()":"bdb0e451","claimPrize(uint256)":"d7098154","closeCurrentRound()":"d96e44db","currentRoundId()":"9cbe5efd","feeBps()":"24a9d853","finalizePayouts(uint256)":"cf44a620","getApproved(uint256)":"081812fc","getRoundInfo(uint256)":"88c3ffb0","getRoundTickets(uint256)":"04ad675d","getTicketInfo(uint256)":"ff99a063","isApprovedForAll(address,address)":"e985e9c5","latestRoundId()":"11a8f413","name()":"06fdde03","nextTicketId()":"6031a52f","owner()":"8da5cb5b","ownerOf(uint256)":"6352211e","purchaseTimestamps(uint256)":"7323c551","rawFulfillRandomWords(uint256,uint256[])":"1fe543e3","renounceOwnership()":"715018a6","requestIdToRoundId(uint256)":"65f9c226","requestRandomWinningNumbers(uint256)":"0c7c1d0b","rounds(uint256)":"8c65c81f","safeTransferFrom(address,address,uint256)":"42842e0e","safeTransferFrom(address,address,uint256,bytes)":"b88d4fde","setApprovalForAll(address,bool)":"a22cb465","setTreasury(address)":"f0f44260","startNextRound(uint64)":"69a53941","supportsInterface(bytes4)":"01ffc9a7","symbol()":"95d89b41","ticketClaimed(uint256)":"2c4fee9e","ticketIsUSDT(uint256)":"f2640d80","ticketLuckyNumber(uint256)":"cd65d2e5","ticketNumbers(uint256)":"b7fe9379","ticketTier(uint256)":"5bef6364","ticketToRound(uint256)":"46b00aec","tokenURI(uint256)":"c87b56dd","transferFrom(address,address,uint256)":"23b872dd","transferOwnership(address)":"f2fde38b","treasury()":"61d027b3","updateFeeConfig(uint16,uint16,uint16,uint16)":"fc1eb1a9","usdc()":"3e413bee","usdt()":"2f48ab7d","w1()":"7e44755b","w2()":"03cf8a20","w3()":"a044c987","withdrawUnclaimed(address,uint256,uint256)":"fe73de4a"},"id":65}